:020000040001F9
:1060000058380020C57E0100DF7E010029620100B2
:106010000000000000000000000000000000000080
:1060200000000000000000000000000061610100AD
:106030000000000000000000E57E0100E77E010096
:10604000E97E0100E97E0100E97E0100E97E0100B0
:10605000E97E0100000000003F9E0100E97E010092
:10606000E97E0100E97E0100E97E0100E97E010090
:10607000E97E0100E97E0100E97E0100E97E010080
:10608000E97E0100B39B0100E97E0100E97E010089
:10609000CF9B0100E97E0100C5A10100E97E01005E
:1060A000E97E0100E97E0100000000000000000020
:1060B00000000000000000000000000000000000E0
:1060C00000F002F800F03CF80CA030C808382418A2
:1060D0002D18A246671EAB4654465D46AC4201D120
:1060E00000F02EF87E460F3E0FCCB6460126334216
:1060F00000D0FB1AA246AB46334318479C49000028
:10610000BC4900000023002400250026103A01D3DA
:1061100078C1FBD8520700D330C100D50B6070475F
:1061200010B5642902D104F05DF910BD002010BD46
:106130001FB50098019904F0DCFA1FBD10B510BD21
:1061400004F0E1FB1146FFF7F3FF00F0B1F804F0B3
:10615000F9FB03B4FFF7F2FF03BC04F027FC0000D7
:106160000648704502D1EFF3098101E0EFF30881A1
:10617000886902380078024A10470000FDFFFFFFDF
:106180003B7D0100401E00BF00BF00BF00BF00BF3D
:1061900000BF00BF00BF00BF00BF00BF00BFF1D104
:1061A00070470000401E00BF00BF00BF00BF00BF1F
:1061B00000BF00BF00BF00BF00BF00BF00BFF1D1E4
:1061C0007047000070B505460C46164602E00FCC3D
:1061D0000FC5103E102EFAD2082E02D303CC03C5F1
:1061E000083E042E07D301CC01C5361F03E02178F9
:1061F0002970641C6D1C761EF9D270BD6D4C802018
:10620000A060FF27F5378503C603384602F020FD5E
:10621000A560E660384602F01BFDA660E560F4E785
:10622000FFF7ECFFFFF7EAFFBFF34F8F63496248C8
:10623000C860BFF34F8FFEE710B50178002903D087
:10624000012901D0022901D101F0F7FD10BD10B5DF
:1062500000F096FE10BD10B5594903200860091DD5
:106260000860012153484905C1604900C1604900E7
:10627000C1600021012000F0ADF80021022000F0F3
:10628000A9F810BD10B50446204600F018F92046C4
:1062900002F001FA21464B4802F054FC10BD10B543
:1062A00040DF002803D000221146FFF7BBFF10BDDE
:1062B00086B04449002350225039082003F04EFF95
:1062C000002803D000221146FFF7ACFF00240594FC
:1062D00005A860DF002803D000221146FFF7A2FFC7
:1062E000394803F05FFF002803D000221146FFF772
:1062F00099FF364803F05EFF002803D000221146C4
:10630000FFF790FFFFF7A7FF31480290C8206946CA
:106310008873262008730C2048730C740320C873FC
:1063200002A807C800F07CFB002803D00022114619
:10633000FFF778FF012000F09DFB002803D000222A
:106340001146FFF76FFF022000F094FB002803D0F6
:1063500000221146FFF766FF032000F08BFB0028A8
:1063600003D000221146FFF75DFF042000F082FBFE
:10637000002803D000221146FFF754FF01200190AE
:10638000002201A900F07EFB00F054F8002101205A
:1063900000F020F80021022000F01CF8002103206A
:1063A00000F018F80021042000F014F8FFF777FF40
:1063B000FCE70000000500500400FA0500ED00E0D5
:1063C000540700508C210020856201004F620100BB
:1063D0008FA641A51430012282400348002901D034
:1063E000C2607047826070470005005001885029E4
:1063F00007D0512905D0522903D1002280881146A7
:10640000A9DF704710B5018810390B0004F01FFB9D
:10641000040503050605354873DF10BD334A80883F
:10642000083A00217FDF0028F7D000221146FFF74D
:10643000F9FE10BD00B595B00420149038212C4809
:1064400004F087F82A480121818014A98160022183
:10645000017028480068139011A871DF002803D04C
:1064600000221146FFF7DEFE10A8407A22A10202A8
:1064700010A8807A024301A803F06AFF01A803F084
:10648000E7FF82B201A913A87CDF002803D0002215
:106490001146FFF7C7FE0021154801F0DDFF002877
:1064A00003D000221146FFF7BDFE104873DF00281D
:1064B00003D000221146FFF7B5FE15B000BD10B5A0
:1064C0000446204600F00FFB002809D12088F02167
:1064D0000840102805D0502802D12046FFF786FF3B
:1064E00010BD2046FFF78EFF10BD000008200020E1
:1064F000BC21002068AA01007262635F6D65736849
:106500002023256400000000FE48C178807808310F
:10651000814201D10120704700207047F9488178FD
:10652000C078814201D10120704700207047F548B2
:106530008178C078081AC0B2704770B50546FFF779
:10654000E3FF002804D0002211460420FFF76AFE72
:10655000EC4C1421A0784007400F4843EA4940180A
:1065600014222946FFF72EFEA078411C4007A17097
:10657000400F70BD70B50546FFF7D0FF002801D071
:106580000E2070BDDF4CE0784107490F14204143D5
:10659000DD48091814222846FFF714FEE078401C55
:1065A000E070002070BD70B505460C46FFF7BFFFD8
:1065B000A04201D20E2070BDD2481421C07800192B
:1065C0004007400F4843D049411814222846FFF79E
:1065D000F9FD002070BD0021E5E7CA488178C1704F
:1065E00070471EB54100C94A0A2802D8091D9160AA
:1065F00011E0242802D8891D91600CE0C4494C6840
:106600000B6889680194009302910146253989003D
:106610006B46595891604006BC49400E4031486174
:106620001EBD00B58BB0002106A8FFF7BCFF0121FD
:1066300001A8FFF7B8FFFFF77AFF022806D1B54897
:106640000168002902D0C068002805D008A948794F
:106650006946497C884202D001200BB000BD002071
:10666000FBE7F1B590B0AC480068002800D00120ED
:106670000F900AA8FFF77EFFA84908680007800F5F
:1066800001D0012600E000269E4C607800280BD047
:1066900000206070A14900200860FFF73FFF02253D
:1066A000002803D0257083E00120F2E7002705A829
:1066B000FFF791FF0698002806D000F078FB0699B6
:1066C000814201D2002006900698002815D09149F9
:1066D0000698F83900F025FB6846007D8B49904A02
:1066E00001281AD008A80078C862012020700798F5
:1066F00048609560002E2CD032E088490120086067
:1067000008A9087A6946097D8842E5D108A9487D2B
:1067100049788842E0D10127DEE708A800780863BD
:10672000002020706078830076480830C0584860A8
:1067300055600698002802D0069800F070F8002EE8
:106740000ED108A84078FFF74CFF76490120486039
:1067500006E008A84078FFF744FF7249012008606E
:10676000002F02D06F4901208860FFF7E0FE01286A
:1067700029D001216846FFF716FF69460878097D90
:10678000884205D16946487B08A9497888420FD0DC
:106790006946487BFFF725FF60480168294301608F
:1067A00069460978012913D0016804221143016068
:1067B00008A8007A012810D00E98002801D00E9861
:1067C000804711B0F0BD5548016829430160EFE7EB
:1067D0000168082211430160EAE70F991098084206
:1067E0000FD00E980028ECD06078002807D0002049
:1067F00081004448083040580E998847E1E701205D
:10680000F6E70E980028DCD00E9900208847D8E7DC
:106810003C4802210170FF210171002021E710B5E1
:10682000404A424B10324049C01800F043FA354903
:10683000087110BD70B53E490022CA630125CD63C1
:106840003249CA6003230B6102248C602F4B25263A
:1068500040335E61060E4E620002C861CA620D637B
:10686000344848613448886134488863FF200430E4
:1068700048633348C863942058602248FF2101715F
:106880000470FFF7AAFE2F4804602F48046070BD13
:10689000F0B585B004462046FFF74FFE194F02259C
:1068A00038781E4E022814D0FFF7BBFE00280ED108
:1068B000FFF73DFE02280AD16846FFF78CFE6846C6
:1068C00001782078814263D13068A843306005B0F8
:1068D000F0BD607BFFF785FE10480560606800280A
:1068E00006D000F064FA6168814201D20020606045
:1068F000227806490B480126012A34D0A2684A6052
:10690000074923E01C200020F4230020001500404C
:106910006CAA010000110040001400400012004069
:10692000001300400010004011680100E83A000028
:10693000C01F004006010200250003025B060000A4
:106940005555550080E200E000E100E08D600660F2
:106950003E706068002816D02D4900F0E2F92D48FD
:1069600008214160B3E77A782B4B92009A584A602D
:1069700046606068002801D0FFF751FF00203870A2
:1069800024484560E5E72548016831430160E6E7B2
:10699000012804D0306804210843306097E731684B
:1069A00008200143316092E710B5FFF716FE1B493E
:1069B000002008601749401E8860154901200839E9
:1069C000086115480221083801700079FF2801D0BC
:1069D00000F0D5F910BD70B50D4CF834E068002515
:1069E000012802D1E560FFF73CFE0B490839087821
:1069F000002807D16068012804D10879FF2801D058
:106A000000F0BDF925606560A560E560256170BD99
:106A10000810004000130040242000200012004015
:106A2000F7B582B00020019001A812DF694608790D
:106A3000002806D03C4C2078002804D0082005B05F
:106A4000F0BD0220FBE76846857B067B477B2B4633
:106A500032463846029900F05BFD0028EFD100F085
:106A60004EFB029860606670A770E5700120207090
:106A70000020E4E710B500F0E1FF10BD10B500F014
:106A8000FCFF10BD10B5012300F098FD10BD10B53E
:106A900000F0F7FD10BD24490A78002A03D04968A8
:106AA000016000207047082070471F490A78002ABB
:106AB00003D04978017000207047082070471A49B8
:106AC0000A78002A03D089780170002070470820D6
:106AD000704715490A78002A03D0C9780160002060
:106AE00070470820704710B504462088102802D14E
:106AF000A08800F0F2FE0C480078002804D020881E
:106B0000502803D0002010BD082010BDA01D00F0AB
:106B10003DFF002805D0102803D00F28F5D1002014
:106B200010BD002010BD00002C20002030B500203A
:106B3000CD4CCC4B617801258200D218126C012A11
:106B400003D02A4682400A4210D02A46824091430E
:106B50006170014608318D40C4498D60E1789143F0
:106B6000E17000218200D218116430BD401CC0B217
:106B70000428E1D3FF2030BDF0B58DB0BA4D01231C
:106B800028780026FF281AD0B64A81008A18146C8B
:106B9000002C14D01664B64A8918096CAA688918A2
:106BA00069600246103219469140B24A916008303D
:106BB00019468140AD488160FF202870AE600024F6
:106BC00001231846EA78A04010421BD0A54FA1002F
:106BD000CF193F6C002F15D0A74F79588243EA7028
:106BE000224610329340A34A9360AA78104203D001
:106BF0008243AA70884705E068460671029101A8A1
:106C000000F0B2FA641CE4B2042CD9D30DB0F0BD8C
:106C100070B506460D46FFF789FF0446FF2C04D1E8
:106C2000002211460420FFF7FDFA8F49904B486877
:106C30008219A000C3181A648A4B0022C3181A6470
:106C400023460126103332469A408A4B5A608A4ABC
:106C500015503246C878A2400243CA70204670BD23
:106C6000F8B506460D46FFF761FF0446FF2C04D138
:106C7000002211460420FFF7D5FA7B480127394648
:106C80008278A1400A43827042689319784EA2002C
:106C900096193364734E00239619336423461033D8
:106CA0009F40744B5F60744B9D50C2781143C1701C
:106CB0002046F8BDF7B50546FFF738FF0446FF2D1F
:106CC00004D1002211460420FFF7ACFA654A0021E6
:106CD000A000821811642246012110320B46654E35
:106CE0009340B360604A57687D19614FC7193D648E
:106CF0007360614D019B2B500B46D578A3402B430D
:106D0000D370584A594B4032851820460830024605
:106D1000C000C0180561029D456191405960204640
:106D2000FEBD70B506460D46FFF700FF0446FF2E78
:106D300004D1002211460420FFF774FA494A0021C9
:106D4000A000821811642246012110320B469340A4
:106D5000484A9360444A464B52689219C3181A64D1
:106D6000404A424E40328318204608300246C00056
:106D700080190361456191407160204670BD10B576
:106D8000042813D20146012310311A468A4039499A
:106D90008A60354A1946D47881408C43D4700830D3
:106DA00083403248836050780143517010BD10B564
:106DB000FFF7BCFE0446FF2C04D10022114604203C
:106DC000FFF730FA2D4A0121A00082181164284AE9
:106DD0008018006C244AA14053781943517010BDAB
:106DE00070B505460E46FFF7A1FE0446FF2C04D100
:106DF000002211460420FFF715FA1B480470866034
:106E0000184A0021A0008218116421460122103185
:106E100013468B4017494B60144BE100C9180D61B4
:106E2000164D4035401948610834A2405A6070BD83
:106E30000D48406870470C494860704700B5002015
:106E4000FFF7F9FF084AFF20507006490020403143
:106E5000086048608860C860094B89151960D07067
:106E600000BD0000008100403420002000F50140FA
:106E700000850040008300409424002000800040F2
:106E800000E100E0CA48817840780831814201D1B0
:106E90000120704700207047C548417880788142C2
:106EA00001D1012070470020704770B50546FFF7FB
:106EB000E9FF002804D0002211460420FFF7B2F9B0
:106EC000BB4C302160784007400F4843B949401817
:106ED00030222946FFF776F96078411C400761703F
:106EE000400F70BD70B50546FFF7D6FF002801D0F2
:106EF0000E2070BDAE4CA0784107490F30204143B1
:106F0000AC48091830222846FFF75CF9A078401CED
:106F1000A070002070BDA64841788170704710B500
:106F200001780B0003F093FD050C04090F12080013
:106F3000816842680846904710BD4068804710BD90
:106F40004068804710BD4068804710BD001D00F0BC
:106F50001DFC10BD10B5964A954B3C3200290CD053
:106F600090600324114618390C704A601862187832
:106F7000002801D1104650DF10BD9060186210BD8E
:106F8000042807D08C4A052807D0072808D10121FA
:106F90001046DFE701218948DCE701211046D9E7E7
:106FA0007047834884498069884200D90846012196
:106FB000D0E710B57E4C07E08148FFF793FF00282B
:106FC00002D17F48FFF7ABFFFFF766FF002802D131
:106FD000A0680028F0D110BD75490A78002A0AD0AF
:106FE0008969784A0B18934200D9501A70490122D6
:106FF00024310A7048607047F8B56D4E002524367C
:1070000035706B4C012121707D27FF00030003F0D8
:107010001EFD050435325538600001206A4A00051E
:107020001060A160FFF777FFFFF708FF6561A069B7
:10703000E060206AA0616549C838FFF711FEE06191
:10704000E068FFF7C9FF0120614900050860614A57
:107050001068C021000A0002084310605E484068C2
:107060006168401A410CC0033A46002303F0EFF870
:1070700000F020FE32E0FFF7AEFC2FE0FFF77CFDD2
:107080002CE02169A0694018A06125616069401C5D
:107090006061207FFFF773FEA0694C49C838FFF795
:1070A000DFFDE061A169E068464A0918914202D219
:1070B000FFF792FF12E000F0CFFD0FE0E0688008DC
:1070C000E060B84202D9FFF787FF07E000F0C4FD97
:1070D00004E0002211460820FFF7A4F8257030785C
:1070E000012805D0032806D0256131482430F8BD99
:1070F00070682061F9E7A560FFF70DFFF5E710B5AF
:107100002B4C00202070162026DF002803D0002200
:107110001146FFF787F831484EDF002803D00022E0
:107120001146FFF77FF82C48406860602248A06154
:107130000121FFF70FFF10BD10B51D4B1C4C2C3368
:10714000002A0DD0D86099600322194608390A70C8
:107150004B6020622078002801D1184650DF10BD16
:10716000D8609960206210BD10B5FFF79EFE012027
:10717000154900058039086010BD10B50C4CA06899
:10718000002808D0FFF713FEA1690A46C83A9042CA
:1071900003D9002010BD002010BD081AC83810BD4A
:1071A00003488168002901D080697047002070473A
:1071B00040200020A4240020A0860100B80B00007D
:1071C0002426002040420F0080E200E0A36F01006F
:1071D00000E100E014E400E000B50040F96F0100B8
:1071E000F8B5044600202073574D584A2978481CAA
:1071F00003468906890E565C9906401C890E07468F
:10720000515C401C09020E43B906431C890E515CB7
:1072100080062B70800E105C0904000601430E43AB
:10722000A06847083946304603F095F96868C219E6
:1072300089182160A16808186060607B40084000E0
:107240006073F8BDF8B5404CA060E160627000204A
:1072500020704025684631DF002803D00022114607
:10726000FEF7E0FF68460078002812D02278A91ABD
:10727000814200DA0846C6B234483146801832DF0F
:10728000002803D000221146FEF7CCFF2078801999
:10729000207020784028DDD3F8BD2B484168491C78
:1072A000416070472849486070472749896849000C
:1072B00081600021417393E7017B491C0173704792
:1072C000417B4908490041731F498968816087E70C
:1072D00081681D4A9268914200D9F1E77047417B6D
:1072E000012211434173704730B400220A70164CDA
:1072F000437B6268DD070ED04168914214D88168F3
:10730000A3684A00E16859438A4201D28168490072
:10731000816030BC64E70568954205D8057B6478D8
:107320000122A54202D20A7030BC70471343437356
:10733000FAE7054840687047417BC90701D04068BB
:1073400070470068704700008C2000205426002001
:1073500070B592B00446607A272805D86068052881
:1073600002D3F749884202D9072012B070BD002528
:10737000119501200007000F103010AA1071012094
:107380000007000F103050719079F9263040801CB2
:1073900090711C210AA803F0DCF808AA107A0221D7
:1073A00008431022104308AA10720D9511A80F90DF
:1073B0000B950E95099510790007000F1030000904
:1073C0000001401C107150790007000F10300009B7
:1073D0000001401C50719079F7221040EF221040BC
:1073E000400840003040801C08AA9071D548407881
:1073F00090706A4611842068059060680690207A33
:107400001077607A50771421684603F0A2F80920BB
:107410006A4610815581908108A8009005A80490C3
:1074200009A80190C848C84B00890A330AA9A2DFFD
:10743000002801D0032098E7002096E7F0B593B02C
:1074400005469B2D02D3072013B0F0BD00241194F4
:107450001294012610A90E724C7104270F71681C3A
:1074600048811C210AA803F074F811A80D9008A9FE
:10747000087A0221084338431021084308A90872FA
:107480000F9410940B940E94099408790007000F40
:10749000103000090001401C087148790007000FF6
:1074A000103000090001401C48718879F92108401A
:1074B000801CF7210840EF210840304308A988715B
:1074C000A0484078887003206946088402941421FB
:1074D00003A803F03EF869468E82CC821C20088304
:1074E00009A8049008A8039002A80790964C6B4640
:1074F000208903AA0AA9A2DF002801D00320A3E75C
:107500006846690162680088891C505400209BE726
:10751000FFB585B004468E461D469B2C02D9072038
:1075200009B0F0BD874F3878002801D00820F7E770
:10753000012038700020049004A860DF824E34706F
:1075400080498248491C63DF002801D00320E7E717
:10755000787869468873012088817B4A03A90832BC
:10756000A0DF002801D00320DAE7704600900195E3
:107570006946079848720C726846FFF7E9FE307852
:107580004401204602F032FE7060214602F0E1FF25
:10759000002406E02046FFF751FF0028C0D1641CFC
:1075A000E4B23078A042F5D87D20C0004B2168437A
:1075B0000322C900FFF746FE0020B1E7FFB585B002
:1075C0000E46604D297800290BD05F490A78824227
:1075D00009D3002807D06A46928B1C2A05D90920B6
:1075E0009EE708209CE710209AE74968401E40016A
:1075F0000C182088401C2080E078C107CF177F1C22
:10760000002F07D003210843E07020461030FFF719
:107610004CFE03E020461030FFF75AFE089838432E
:107620000BD003A871DF2046072203A90830FEF71C
:10763000C9FDE07804210843E0706888444FB842EF
:1076400014D0A1786A46918000211181049607A97F
:1076500003910121917101A9A6DF00280FD03D49B6
:10766000884201D16F800AE0032059E7A0783346B1
:1076700007AA0021A4DF002801D0032050E7002042
:107680004EE770B51E462F4B1B78002B13D02E4DA6
:107690002B78834211D300280FD01C231380401E67
:1076A00044016B68A01C185C0B460021A5DF002874
:1076B00005D0032070BD082070BD102070BD002EC5
:1076C00006D06868083401190722304602F0E2FE4D
:1076D000002070BD1FB504461A48007800280CD061
:1076E0000A200090184801AB40896A460021A5DFB6
:1076F000002804D0032004B010BD0820FBE7684632
:1077000000880A2801D00320F5E70198206002983C
:1077100060606846407B60726846007B2072002093
:10772000E9E7F8B5054607480078002805D00026A7
:10773000701E28600024044F1FE00820F8BD0000E0
:1077400060EA00009C2000209426002078AA010016
:10775000FFFF00000230000061017868CA1C825CF3
:10776000D20708D010314018FFF7E6FD29688142A2
:1077700001D901262860641CE4B23878A042EBD815
:10778000002E01D00020D9E70520D7E7F0B589B059
:107790000546C648007800280FD02E7AA97A687A64
:1077A00009020843089028460B300790E879C01E6C
:1077B00087B21C2F03D90920B2E60820B0E6BC48E6
:1077C0000178B14239D3002E37D04168701E400194
:1077D0000C18E0788007C017401C06900698002817
:1077E00003D020461030FFF760FD218808988142C1
:1077F00003D020461030FFF76BFD2088089988429F
:1078000002D3069900292BD000233A463046079927
:10781000FFF7D4FEE07802210843FB210840E07026
:10782000089820802046072229460830FEF7CAFC27
:107830000698002803D0022002E0102070E6002005
:10784000694608720F744E810798039004A80722B6
:107850002946013002F01EFE02A8FEF7EDFC38E0DA
:107860000899884235D11C200590002305AA1946A5
:107870003046FFF706FF00289ED10490A96A62688F
:107880000120914204D0E178490701D4049004E03A
:107890006946898AB94200D004906946097C00296A
:1078A00013D0694608700F724E800798019002A8A5
:1078B00007222946013002F0EDFD20461030FFF787
:1078C00007FD6846FEF7B8FC03E020461030FFF7DE
:1078D000F3FCA86A6060002022E67449488000201A
:1078E0007047F0B58BB006461746002038706F48D9
:1078F0000078002801D0002542E008200BB0F0BD40
:10790000406869014418E078C00737D0002008902B
:107910002046103008A90A90FFF7E6FC08A908786D
:1079200000282BD03878002828D10A98FFF7D7FCF8
:107930001C200090681C0990C0B200236A4601A96F
:10794000FFF79FFE0028D9D1099830722078707215
:107950002088000AB07268460288304601A90B30C0
:1079600002F098FD68460088C01CF071214607228D
:1079700008313046FEF726FC012038706D1CEDB250
:107980004B480178A942BBD80020B7E7F0B587B0D3
:10799000064646480078002807D04549308A0A89BB
:1079A000904204D00F2007B0F0BD0820FBE7002470
:1079B0003F480A7840683DE06101891C415C33889A
:1079C000994235D161014518E8788007C7177F1CB7
:1079D000002F03D028461030FFF767FCE878072116
:1079E0000843E8702888401C288028461030FFF79C
:1079F0006FFC05A871DF2846072205A90830FEF7AD
:107A0000E1FB002F01D0022000E000206946087150
:107A1000307E0873641CCC801A36029605A90722B2
:107A2000C81F02F037FD01A8FEF706FC0020BAE7E8
:107A3000641CE4B2A242BFD81020B4E770B51B4961
:107A40000978002915D01A4D2978814213D30028CE
:107A500011D0401E44012046696810300818FFF715
:107A600024FC6868E41C015D0322114301550020D9
:107A700070BD082070BD102070BD0C490978002928
:107A80000FD00B490A7882420DD300280BD0401E3C
:107A900049684001C01C0A5C520852000A54002088
:107AA0007047082070471020704700009C2000207D
:107AB0009426002070B58CB004468748C068060242
:107AC000360AFFF75AFBFF21F531884201D900F051
:107AD0004AF8002C45D020780007000F022829D052
:107AE000002000283DD004206946087001AD607870
:107AF0008006800E801FC2B2CA7221462846093114
:107B0000083002F0C7FC0622E11C681C02F0C2FC2F
:107B100020784006C00F00281CD06846817AC843F0
:107B20000006800F08D00020002807D001206946F9
:107B3000087112E00120D4E70120F5E78809012847
:107B400000D00020002801D0022000E00320694678
:107B5000087102E00020694608710B966846FFF73D
:107B600003FB0CB070BD10B586B0012468460474E8
:107B70005A48059004A80130FEF797FF6846047143
:107B80000020029001A8FEF783FE06B010BDF0B5FC
:107B900093B0FFF7F2FAFF21F531884258D3FFF78F
:107BA00006F94F4949684018FFF77CFB0025079507
:107BB00007AA1C2108A8FFF794FE6846007F00284A
:107BC0002ED0FEF7F1FE08A80078002842D0402011
:107BD000022108430AAF434C207008A8C6791C2E26
:107BE00000D91C26A570B01D607008A906220131BD
:107BF000E01C02F04FFC204632463946093002F0C4
:107C000049FC684605741130FEF74FFF6846057160
:107C100003940295059501A8FEF73AFEFFF7A3FF2E
:107C2000FFF7BEFA054606A8FFF77BFD00280FD137
:107C30002B4C069960684019884209D92078FFF7D3
:107C40009EF806986168401A2749FEF7E1FF207008
:107C500013B0F0BD0020BBE730B58DB0FFF7A7F83B
:107C60001F4C616845182846FFF71CFB0CA8FFF75E
:107C700058FD00280AD10C98A84209D21A48019050
:107C80000320694608706846FFF76EFA0DB030BDF4
:107C9000FFF786FA616840180C998842F6D9207877
:107CA000FFF76DF80C986168401A0F49FEF7B0FFB6
:107CB0002070EBE738B504466846FEF7ECFE009806
:107CC000FEF7B8FD0649FF220A704C60FFF74BFF34
:107CD000FFF7C2FF38BD000000140040B57A010074
:107CE000A0200020A82600208F7B010010B50028CE
:107CF00009D0224B191A984215D02C290ED20022F5
:107D00002C332C3005E00E2010BD0178401E197078
:107D10005B1E1146521C2C29F7D904E001462C2287
:107D2000184602F0B7FB00222C21144802F0B4F9E7
:107D30001249891E0880002010BD10B50C4600288D
:107D400002D00120206010BD2068FFF7CFFF206027
:107D500010BD10B5044600222C21084802F09CF901
:107D60000649891E0988884201D00B2010BD2C22AB
:107D70000249204602F08EFB002010BD2A30002070
:107D800070B500280FD081688A070ED00022002A23
:107D90000DD04B4D2A78032A0BD0042A09D0052A8E
:107DA00009D0082070BD0E2070BD0122EFE7102021
:107DB00070BD082070BD40688400A8686B68021917
:107DC0009A4204D90020C043A8600C2070BD83B241
:107DD000A2B2E86801F0BAFB0028F7D1A968091936
:107DE000A9606A689142F1D0092070BD10B54A6857
:107DF0001378F8242340DC08537892781B0213434D
:107E0000048083800A7A02734A88428049688160CC
:107E100010BD00B587B0C9006B46197011125970BA
:107E20009A700321FF225A54491C1C29FBDB1C2297
:107E30006946FEF727FE07B000BD10B586B00446C0
:107E4000214602A8FFF7D2FF684671DF69464879EC
:107E500089790002084369468989814213D16846BD
:107E60000089030002F0F3FD080F050F110F0F0F3B
:107E7000160F01210846FEF7ADFA68468289A07800
:107E80000221FFF7C6FF06B010BD01210846FEF72C
:107E9000A1FAF8E701210220FEF79CFA0320000373
:107EA00082680F208003801A40080549101810319D
:107EB000486068468289A0780821FFF7AAFFE2E7B8
:107EC000A820002003210C4802680A4302600B48E6
:107ED00002680A4302600A4880470A480047FEE7F2
:107EE000FEE7FEE7FEE7FEE7FEE70000064807497B
:107EF000074A084B70470000240500405405004025
:107F0000997F0100C1600100282800205838002016
:107F100028300020583000202A492948086070473E
:107F20002948018CC9B201290BD1818C090708D1DC
:107F3000018D0906090F042903D1808D0006000F69
:107F400001D000207047012070471F49088CC0B243
:107F500001281DD1888C00071AD1088D0006020F58
:107F600003D18A8D1206120F03D0000F012802D010
:107F700005E0012070478A8D1206120F02D00328F7
:107F800002D005E001207047888D0006000F01D067
:107F9000002070470120704710B5FFF7D6FF00287A
:107FA00005D00B4909484860C8130A498861FFF7A2
:107FB000B7FF002802D008490120886010BD0000EA
:107FC0000024F400C0200020C00F00F0DFFF07C035
:107FD00000050040006C004000060040F8B5054672
:107FE0000E4617463C78A01C1F2803D86878801CD2
:107FF0001F2801D90C20F8BD1D20001B80B2864629
:1080000000903019801C69467DDF0028F3D1287864
:10801000022805D168460088704501D8092107E08B
:1080200008216878002801D0704501D96846008889
:10803000431C621CD2B23355B1543978801C0818E5
:1080400038700020F8BD38B505460C462078001D74
:108050001F2801D90C2038BD684679DF0028FAD1E5
:1080600020780322411C21702A5420781922411CB7
:1080700021702A54207841196846008800F01CFAC3
:10808000217840182070002038BD70B505461C4688
:108090006868002807D020782B88C618B61C1F2EC9
:1080A00003D90C2070BD072070BD5B1C461C2670D8
:1080B00013542078431C23701154237828889B186C
:1080C00002461846696802F0E5F9207829784018D8
:1080D0002070002070BD30B51378DC1C1F2C01D936
:1080E0000C2030BD02255C1C1470CD5413780A2579
:1080F0005C1C1470CD5413785C1C1470C8540020A0
:1081000030BDFFB583B00C9C86461F460026207804
:108110000290002536E070464068A90040180188AA
:108120006A46118040885080002201A9684665DFB8
:1081300000280FD1684602790598824221D1002E8D
:1081400001D0002100E002212078511841181F2998
:1081500002D90C2007B0F0BD002E06D1401CC0B2E1
:10816000421C0499227039540126207801A9C219B1
:10817000684665DF0028EDD1694620780979401806
:1081800020706D1C70460088A842C4DC002E05D00B
:1081900021780298081A0299401E78540020D9E7E5
:1081A000F8B5069C064615461F463B460222304659
:1081B0000094FFF7A6FF002808D13B46102229466D
:1081C00030460094FFF79DFF0028FFD1F8BD0188DD
:1081D000062906D31923DB01BA4A994203D99142F1
:1081E00001D0072070474088062803D3984203D95E
:1081F000904201D007207047914205D0904203D0B1
:10820000814201D9072070470020704770B50646AB
:108210000D4614462078801D1F2801D90C2070BD02
:108220003046FFF7D4FF0028F9D120780522411C01
:1082300021702A5420781222411C21702A5420785F
:108240004119308800F038F921784018C0B2207008
:108250004119708800F030F9217840182070002012
:1082600070BD70B505460E4614462879801CC0B214
:108270002178821C8A181F2A01D90C2070BD401C4D
:108280000A46491C2170B0542078FF22411C2170FD
:10829000325420788119288800F00EF9217840188E
:1082A000C0B22070AA88002A09D0A968002908D085
:1082B000801902F0EFF8207829794018207000200A
:1082C00070BD072070BDF7B582B00F461446029806
:1082D000006B002804D000260298203001902AE08C
:1082E000072005B0F0BD0298016B0C2070430D18FB
:1082F00029792078C91C421C227039542078162113
:10830000421C227039542078C119288800F0D4F812
:1083100021784018C0B22070AA88002A09D0A96824
:1083200000290ED0C01902F0B5F82078297940183C
:108330002070761CF6B20198007DB042D3D80020A0
:10834000CFE70720CDE7F8B504460F4615460020D5
:10835000002129702178002906D02A463946204676
:10836000FFF73CFE002862D1A178002905D02946FC
:108370003846FFF768FE002859D1A188002907D0A8
:108380002B463A460121201DFFF77FFE00284ED1E3
:10839000E168002907D0002008562A463946FFF731
:1083A0009AFE002843D1218A002909D020463B4665
:1083B0000622022110300095FFF7F2FE002836D188
:1083C000218B002909D020463B4607220321183083
:1083D0000095FFF7E5FE002829D1218C264620369E
:1083E000002908D03B461522142130460095FFF79E
:1083F000D7FE00281BD1A36A002B06D02A46394697
:108400001846FFF703FF002811D1E36A002B06D0BE
:108410002A4639461846FFF724FF002807D1317D48
:10842000002904D02A4639462046FFF74CFFF8BD04
:108430008188002905D08068002802D00078400794
:1084400001D407207047002070478088002801D0A1
:10845000072070470020704730B593B005460C46A2
:10846000002012901190002D0DD02846FFF7E0FF5C
:1084700000281FD112AA09A92846FFF764FF002887
:1084800018D109AD00E00025002C0DD02046FFF7E3
:10849000DCFF00280ED111AA01A92046FFF753FFE7
:1084A000002807D101AA00E0002210A80379017A70
:1084B000284672DF13B030BD0870000A48700220F1
:1084C00070470000FFFF00008C4940880A889042F6
:1084D00004D34988884201D80120704700207047A2
:1084E00038B5864A8649083A508888420FD0517874
:1084F000491CC9B25170834C237B8B4208D37F49FE
:1085000075DF002803D0A169002900D0884738BD55
:1085100000255570217C002907D03B2176DF0028FB
:1085200003D0A169002900D0884761690029EED0F5
:1085300000956846884738BD70B506461C2231460E
:108540007048FDF73FFE6D4C0025083C25703168F2
:10855000002908D00822A01801F09CFF67487ADFA4
:1085600000280ED103E065487BDF002809D10020F8
:10857000C043608065706148634A0021001F01F0BC
:1085800080FB70BD10B55D480838406801F0F6FB0F
:1085900010BDF8B559480830FFF796FF574D002633
:1085A000083D584C002808D06169002903D00120FB
:1085B0000090684688472E70F8BD2878002806D0BD
:1085C00061690029F7D0009668468847F3E7687824
:1085D00000280BD0A1680022686801F0A6FB0028E3
:1085E000E9D0A1690029E6D08847E4E76168F2E7AD
:1085F00010B5424C8188083C618001462046082223
:108600000E31103001F046FF002060703D48C089F7
:10861000002801D1FFF7BDFF10BD10B5002137487C
:10862000C9430838418000214170406801F0A6FB31
:10863000002804D033498969002900D0884710BD3B
:1086400010B5801D2F4C0188E28991420CD1018B1D
:10865000022909D1817EC07E00020143C807C00FF4
:10866000002802D0FFF795FF10BD24480838406865
:1086700001F084FB0028F7D0A1690029F4D08847D5
:1086800010BD10B5811D1D480822083001F002FF01
:10869000FFF77FFF10BD0188102906D0112905D0F2
:1086A000122904D0502903D1CAE7A1E7B5E7E8E7CA
:1086B0007047F8B501460822104801F0EBFE0F485C
:1086C0007ADF054628000DD10C480830FFF7FCFE84
:1086D0000126002808D00B484169002902D00096E5
:1086E000684688472846F8BD044C083C2670034974
:1086F000608875DF05466670F4E70000CC20002036
:10870000FFFF0000D0260020E184010030B58FB0CB
:1087100005461C2108A801F01CFF08A908780421BF
:10872000084308A90870002409940B940C940D9434
:108730000E94A87969468872FD480881019400204A
:108740000007000F087101200007000F103048716A
:108750008879F9210840801CF7210840EF21084062
:108760000121084369468871142103A801F0F1FE34
:1087700002A8039001A8049069468C82CC82142040
:10878000088307942B46A888083303AA08A9A2DF08
:108790000FB030BDF0B58FB005460F461C2108A8BC
:1087A00001F0D7FE08A9087802263043087000249B
:1087B00009940B940C940D940E94A87969468872D0
:1087C000DB48801C0881019401200007000F103055
:1087D000087100200007000F48718879F9210840CE
:1087E000801CF7210840EF21084001210843694619
:1087F0008871142103A801F0ACFE02A8039001A81F
:10880000049069468E82CC820E8307972B46A888F7
:10881000203303AA08A9A2DF0FB0F0BD30B58FB096
:1088200005461C2108A801F094FE08AA107808212A
:108830000843102108431070002409940B940C94F1
:108840000D940E94A8796A469072B948401E108122
:10885000019400200007000F107101200007000F95
:10886000103050719079F9221040801CF72210408E
:108870000843012108436A469071142103A801F0BE
:1088800068FE02A8039001A804906A469482D482EC
:108890001720108307942B46A888103303AA08A931
:1088A000A2DF75E78988018070471CB50446022065
:1088B0000190A08A6B4601AA0021A5DF002805D0FF
:1088C000E16A002900D0884700201CBD694608786D
:1088D000497809020843C007C00F1CBD70B586B0B7
:1088E000002822D00388934CA34220D0924B1B78BF
:1088F000002B1CD00023904C10260125641C2670F0
:10890000617003210191A270029303930493059374
:10891000018A6E463181B572B38101A90491059433
:10892000008802A9A6DF06B070BD0E20FBE7082074
:10893000F9E7F0B587B004460D460227684607738D
:108940002046FFF7B2FF002814D0002668460682B2
:10895000208803A9A8DF002813D1A97E28461B3050
:1089600001220B0002F073F809710F2031383F46E5
:10897000694D7100FF20FE3069460882208803A9F6
:10898000A8DF07B0F0BD6B461E702B8B022B04D204
:1089900006222046FFF7A2FFF3E769460A7102901C
:1089A000A26A204690474EE06B461A702B8B022B32
:1089B00004D206222046FFF791FFE2E769460A71DA
:1089C0000290A26A204690473DE068460770A26A7E
:1089D00069462046904736E0032069460870A26A3F
:1089E000204690472FE0042069460870A26A20467E
:1089F000904728E0052069460870A26A2046904703
:108A000021E0288B032805D2032208212046FFF706
:108A100065FFB6E7297FE87E09020843694688803A
:108A2000002806D006200870A26A694620469047B2
:108A300009E0072069460870F6E7092069460870D2
:108A4000A26A2046904700209BE703222046FFF7BA
:108A500045FF96E710B50446891D087802280DD118
:108A60004888228A904209D1891C2046FFF761FF7D
:108A7000002803D0E16A002900D0884710BD0EB558
:108A8000CA8803899A4209D108226B461A708A7FE4
:108A90001A7120310291826A694690470EBD002109
:108AA000C9430180704730B585B004460D46002C9F
:108AB00046D0002D44D06868002841D00020C04333
:108AC00020801E4801460EC9C068029301920091A1
:108AD000039017486946801E08821231684663DF9A
:108AE000002822D1221D04A90120A0DF00281CD1CA
:108AF0006846807CA0712046FFF708FE002814D14C
:108B00002046FFF78BFE00280FD129462046FFF7AD
:108B100041FE002809D16868A062A868002800D03A
:108B2000E062054901200870002005B030BD00005A
:108B300032150000FFFF0000DC20002088AA0100A1
:108B40000E20F2E7002811D000290FD0826A002AF7
:108B50000CD00A88102A06D0112A06D0502A03D039
:108B6000512A03D176E79DE689E798E77047F0B58B
:108B7000054685B00846002D29D02988324A914201
:108B800027D032490978002923D000242F4E102104
:108B90000127761C31700721717003210091B77095
:108BA000F11C00F047F86A461188401800900194C3
:108BB000029403940494288A9080977114816846E3
:108BC00003900496288801A9A6DF05B0F0BD0E2009
:108BD000FBE70820F9E7F0B5054685B00846002D0B
:108BE00024D02988184A914222D0184909780029AE
:108BF0001ED000240127154E1121761C00973170DC
:108C0000711C00F017F86A46118840180090019412
:108C1000029403940494288A908097711481684682
:108C200003900496288801A9A6DFCEE70E20CCE7A2
:108C30000820CAE70870020A4A70020C8A70000E07
:108C4000C870042070470000FFFF0000DC200020F7
:108C500031B5064C05E00099491E00912046FDF70C
:108C600091FA00990029F6D138BD0000E703000011
:108C700014225043F74A002180180171C18001225B
:108C8000C260016141610181704710B5F249002065
:108C900088804870EF49087048708870002420462A
:108CA000FFF7E6FF641C0A2CF9D310BDFFB583B0B3
:108CB00006460F460320E84C069A0599637811434F
:108CC0000291002B04D1029900290FD0012161707B
:108CD000059A6178012592002D0701920B0001F0A1
:108CE000B6FE072208243D628A9E2200022161709E
:108CF000EEE7DA484169491C05D02969406989B223
:108D000001F029FC00E068692969401E89B24843E6
:108D1000296909048A0C296989B2794321DF00286D
:108D200001D10221617007B0F0BD384620DF002874
:108D3000F9D10599002902D003216170F3E7069962
:108D4000002902D004216170EDE73178042902D0B6
:108D500005216170E7E707216170E4E7BF4A5069C8
:108D6000401C05D0286981B2506901F0F4FB00E095
:108D700068692969401E89B241432869059A80B211
:108D8000784321DF0028CED10699002902D00421A2
:108D90006170C8E73178042902D005216170C2E70B
:108DA00006216170BFE7AD4A5069401C05D02869B3
:108DB00081B2506901F0CFFB00E068692969401E6B
:108DC00089B2484371884218019810182A6992B2F2
:108DD0007A4352180199531801461846069A21DF22
:108DE0000028A0D13178042902D0052161709AE7CA
:108DF0000621617097E72869019980B2784340188D
:108E000071888A08316921DF00288CD102990029F4
:108E100002D00621617086E70721617083E78F48E1
:108E20004169491C05D02969406989B201F093FB69
:108E300000E068692969401E89B24843296989B2FE
:108E400001F089FB20DF002884D1072161706AE7E7
:108E5000F8B50F207F4914230A785A435418241D6B
:108E6000E5687D4A21789688022906D001273F07C8
:108E7000042915D005295BD141E02169B00262883F
:108E8000121A0918A3882818181801239B029A425D
:108E900002D2920821DF4BE0FF22013221DF47E0BE
:108EA000A3686C481901CC300818018942894068D0
:108EB000A84203D160885143814218D0022B16D0BA
:108EC000386981B2284601F046FB0146386980B214
:108ED0004843281A820838694B1C80B2584363887B
:108EE0005B19C01A83082046FFF7E0FE20E03869CE
:108EF00081B2284601F02FFB801920DF18E0386985
:108F000081B2284601F027FB0146A0883A6943193F
:108F100092B24A439A1A92086388C0184519386970
:108F20004B1C80B25843401B83082046FFF7BEFE0F
:108F3000002802D1474901228A70F8BDF8B5069E83
:108F4000444D6C780A2C1DD02F783C19E4B20A2CC1
:108F500001D30A3CE4B214277C4364192071626196
:108F600003C92161E060E38026810020A9780029FF
:108F700004D1FFF76DFF112800D100206978491C4A
:108F80006970F8BD0420F8BD10B50020314949785A
:108F9000002906D0FFF75CFF002802D0112800D17D
:108FA000002010BD38B502462A49142308785843DA
:108FB00040180179C368022B09D0264C1B01CC3420
:108FC000E458C388009343690C30A04738BD224B56
:108FD0000C331C68F5E7F8B51E498A78012A0CD1D4
:108FE00000248C701C4B5A78082A07D0022811D014
:108FF000032802D10D20FFF7D5FFF8BD022807D0C6
:109000001C70FFF7C1FF0028F7D0FFF7CBFFF8BDBA
:109010005C70F6E70F481425017869430918091DAB
:109020000D4B9888401C80B298800B78022B05D19C
:109030004E888502B54201D3012600E00026052BAB
:1090400001D1072A03D00025042B09D00AE001250D
:10905000FAE70000EC260020E420002000100010B9
:10906000072A03D00027042B02D007E00127FAE7E4
:1090700049888002884201D3002A20D000203D4345
:109080000543354314D0F64E74702046FFF78AFF2F
:10909000F44D2878FFF7ECFDB4806878401E6870C6
:1090A0002878401CC0B228700A2801D30A382870DA
:1090B000FFF76AFF0028AAD0FFF774FFF8BD012070
:1090C000DDE770B5FFF7E1FDE54D00246C80E64873
:1090D0004169E64E491C05D03169406989B201F009
:1090E0003AFA00E070693169801E89B24843A8608D
:1090F000AC800021DB4BCC3308011C50C21814811A
:1091000094815481491C0029F6D0D54920460C3160
:109110000C60888001212970687070BDFEB504461E
:109120000F46CF480078002810D0002C10D0002F18
:1091300010D0206800280FD0CC4DA688286980B2B6
:10914000864201D8102E09D20720FEBD0820FEBDA0
:109150000E20FEBD0E20FEBD0E20FEBDE08801905B
:10916000002821D0C04A5069401C05D0286981B22E
:10917000506901F0F0F900E068692969401E89B280
:109180004843B74A01999268714300928A18904205
:109190000AD3286980B2814208DD2869314680B24D
:1091A00001F0D9F9002901D00720FEBDB00701D098
:1091B0000720FEBDAA4E7288012A1BD03A60009992
:1091C0007960A84F1001CC37C31959602168395014
:1091D000A0881881E08858810020A188E488614334
:1091E000401C80B22C69A4B28C4205D22C69A4B276
:1091F000091B02E00420FEBD00212C69B768A4B25F
:10920000E419B4602C69A4B28C42E9D99881521C4B
:1092100072800020FEBD3CB5914B1B78002B07D01F
:10922000002807D0002A07D00368002B1CD105E0D6
:1092300008203CBD0E203CBD0E203CBD894CCC34EA
:109240002568002D10D04068009301902089019B73
:109250004143591801916189414360680818019997
:10926000884203D807203CBD07203CBD00980199E7
:1092700003C200203CBDF8B504460F4615461E4605
:1092800077480078002807D0002F07D0002C07D09F
:109290002068002815D105E00820F8BD0E20F8BD93
:1092A0000E20F8BD6F49CC310868002809D04A89E2
:1092B00008894968424351186268914203D80720DF
:1092C000F8BD0720F8BD002D01D0A84201D207202B
:1092D000F8BDA919814201D90720F8BD384600F030
:1092E00086F9002811D0304600F081F900280CD012
:1092F000606800F07CF9002809D02B463A462146E8
:1093000002200096FFF71AFEF8BD1020F8BD1020CD
:10931000F8BDF8B504460F4615461E46504800787D
:10932000002807D0002F07D0002C07D02068002885
:1093300015D105E00820F8BD0E20F8BD0E20F8BDBF
:109340004849CC310868002809D04A890889496809
:10935000424351186268914203D80720F8BD0720A4
:10936000F8BD002D01D0A84201D20720F8BDA919EF
:10937000814201D90720F8BD384600F038F90028AD
:1093800011D0304600F033F900280CD0606800F0AE
:109390002EF9002809D02B463A4621460520009692
:1093A000FFF7CCFDF8BD1020F8BD1020F8BDFFB5CB
:1093B00081B00C4615461E4629480078002808D082
:1093C000002C09D00198002808D02068002816D168
:1093D00006E0082005B0F0BD0E20FBE70E20F9E7FF
:1093E000204FCC373868002809D0798938897A68C5
:1093F000414389186268914203D80720EAE70720B1
:10940000E8E7002D01D0A84201D20720E2E7A91920
:10941000814201D90720DDE7019800F0E8F8002833
:109420001AD0304600F0E3F8002815D0606800F04C
:10943000DEF8002812D060682A468119019801F0F0
:1094400029F800952068002200013D58032120469C
:10945000019BA8470020BDE71020BBE71020B9E71B
:10946000E4200020EC260020001000100000001076
:10947000F8B504460F4661480078002805D0002C56
:1094800005D02068002813D103E00820F8BD0E2085
:10949000F8BD5B4D00262868002809D06889298915
:1094A0004843696841186068814203D80720F8BDC5
:1094B0000720F8BD00F09BF800280DD020686168F7
:1094C0000001401942688A1A0189104601F043F8E8
:1094D000002903D00720F8BD1020F8BD3B4600222C
:1094E000214604200096FFF729FDF8BD434909787D
:1094F000002907D0002807D04149CC3949780160BC
:1095000000207047082070470E2070473B4A1278B1
:10951000002A0DD000280DD000290DD00268002AA5
:109520000CD0364A0C321368002B09D00420704747
:10953000082070470E2070470E2070470E2070479D
:1095400002230B600068106000207047F8B50446E5
:109550000D4617461E4629480078002807D0002DE2
:1095600007D0002C07D0206802281DD105E0082074
:10957000F8BD0E20F8BD0E20F8BD20480C30006864
:10958000002811D0284600F032F800280ED03046CE
:1095900000F02DF8002809D03B462A46214602203B
:1095A0000096FFF7CBFCF8BD0720F8BD1020F8BDF2
:1095B00008B50B4611490978002905D0002805D0C7
:1095C0000168022911D103E0082008BD0E2008BD62
:1095D0000A490C310968002907D000210A46009188
:1095E00001460420FFF7AAFC08BD072008BD80073C
:1095F00001D000207047012070470000E4200020C7
:10960000B82700208307FF22DB0E9A408907090E46
:10961000994000280BDA0007000F08388308FB4840
:109620009B001818C36993430B43C36170478308B9
:10963000F7489B001818036893430B430360704777
:10964000F449886003211120DCE710B50120F249BC
:1096500000044860F049403948600124EF49400067
:109660000860EF490860EF4804602F20FCF79AFD7E
:10967000ED48047110BD70B50125E94968048031D9
:109680000860E54940108860E34940398860E54C4E
:1096900065602F20FCF786FDA560E34C0025656121
:1096A0002F20FCF77FFD257170BDF0B5DE4F242122
:1096B000BB684143CD1839694A1C0BD024244C4364
:1096C000E6186A687468A24206D8A21A7260296213
:1096D0003861F0BD3861F0BD0E4602E0121B0E4647
:1096E000396A4C1C05D024244C43E7187C6894420A
:1096F000F4D34C1C05D024244C43E4186768BF1AEB
:1097000067606A60296224214E43F1180862F0BD47
:1097100070B5C54D2B691C4619462A46926806E06D
:10972000814206D00B46242671438918096A4E1CD3
:10973000F6D1481C1FD08B420CD124204443A018E2
:10974000006A2861401C05D1B64C0120A0600024AD
:109750006C61687124204143881841682424634364
:10976000006A9B181862431C05D0242358438018B4
:1097700042685118416070BD0120A84940048039F9
:10978000086070470120A5490005803908607047CE
:1097900010B5A54982698B69C069002B09D00146C3
:1097A00010469847002803D000221146FCF73AFDE6
:1097B00010BD904710BDF8B59B4F3C69601C27D089
:1097C0000026944840687969401A05022D0A0BE08A
:1097D00024204443B86820184168A94206D86D1A6D
:1097E0008E19046AFFF7D4FF601CF1D1B978F878BC
:1097F000814206D1401CC0B2F870022801D100207D
:10980000F870F878884980001C310E50FFF7BAFFD5
:10981000F8BD10B5844A00239178D478A14212D0C3
:10982000491CC9B29170022900D1937091787E4B86
:1098300089001C3359580160506908180002000A59
:109840005061012010BD0360002010BDF8B57648BE
:1098500001690091467833E07348F100C0680D1843
:109860002C782AE01820696860430818641CE4B268
:10987000A978A14200D100240178022902D003294D
:109880001BD10DE0684A40682421926841438F183B
:10989000397D002911D0FFF73BFF002038750CE01F
:1098A000614F0021BB6805E024225043C0180175B8
:1098B000006A38613869421CF6D16878A042D1D17B
:1098C0003046761EF6B20028C6D157480169009886
:1098D000814201D00120F8BD0020F8BDF0B5002480
:1098E0001CE02423BE686B439B195E68864203D943
:1098F0005968081A5860F0BD801B341900265E6054
:109900001E751E6A3E611E69002E07D00F193F02A8
:109910003F0A9F60DE6016681E621560424F3D6917
:109920006B1CDED1F0BDF8B505463F4801690091DA
:10993000467800275DE03C48F100C2688C1852E090
:10994000681C07D02946384A24209268484380186A
:10995000056A24E020781821626841435218401CAF
:10996000C0B22070A178884200D1277051682E4B78
:1099700024209B684843C0181378012B33D1037D02
:10998000002B30D193688360D368C360136903618F
:109990005269C261244A5279002A00D08760224B62
:1099A00082685B6996469C46D31A1A021F4B120ABC
:1099B0009A4203D2C368D21842600BE062467346F3
:1099C000D21A1202120AC368934202D99A1A42604A
:1099D00000E047608760C76001220275921E026244
:1099E0000846FFF762FE681CAAD120786178884299
:1099F000A6D13046761EF6B200289CD10A480169ED
:109A00000098814214D00120F8BD000000ED00E074
:109A100000E400E0001501404013014080E200E056
:109A200000E100E000100140F8200020FFFF7F006F
:109A30000020E9E7F8B5EA490869421C27D024224A
:109A400050438A6880184768E64844684E69A01BFE
:109A500005022D0AED1C0879002801D1FFF7F5FD5C
:109A6000BD4200D23D46A8190002000ADD4940313E
:109A70000860DC494968091B0902090AC91C001B66
:109A80000002000A8142BFD9FFF776FEBCE7FFF76C
:109A9000F2FDB9E7FEB50020C0430290D04D6E69DB
:109AA0002869009001A8FFF7B4FE0746FFF7CEFE35
:109AB0000446002F05D002AA31460198FFF70EFF99
:109AC00001240298FFF72FFF002800D00124002C6A
:109AD00002D00098FFF7AEFF00206871FEBD417014
:109AE00070474278521C8378934200D10022037859
:109AF000934201D1002070470A60416840781822E3
:109B0000504308187047FFB581B00E461746B44D54
:109B1000C400E86869462018FFF7E3FF002814D066
:109B2000012101704660AF4949688160C7600499AE
:109B300001610A994161E86800992018FFF7CFFF99
:109B4000FFF720FE002005B0F0BD0420FBE7F8B5CC
:109B50000E46A34DC400E86869462018FFF7C1FF10
:109B600000280BD0022101704660E8680099201897
:109B7000FFF7B5FFFFF706FE002045E7042043E7A7
:109B800038B5974DC400E86869462018FFF7A9FF6B
:109B900000280CD003210170091F4160E86800997A
:109BA0002018FFF79CFFFFF7EDFD002038BD0420D3
:109BB00038BD10B58C490020086048608860C860D6
:109BC0008949403908604860FFF7F5FD10BD10B5C0
:109BD000FDF7EFF9FFF75EFF10BDFFB581B00A9FFB
:109BE0000D4616461C46A0070ED0002000280DD0BA
:109BF000002C0DD0FFF73FFD79498F610D70234692
:109C00008C60002000220CE00120EFE707209AE79B
:109C1000072098E72427014679435A54C9180A7542
:109C2000401CA842F6DB242045432B196C4F03202F
:109C300078701C46FB6018330021354618204543D8
:109C4000C80000190270427086704360EB18491C0E
:109C50000329F5DB0020C0433861BA70FA70012493
:109C600062482405046003211420FFF7CBFC604800
:109C700004600198FFF7E4FC5A48406878610020CE
:109C800061E770B5564DAC68002C06D0002A06D0AE
:109C9000002806D000232D780BE0082070BD072097
:109CA00070BD072070BD24265E43A65D002E04D043
:109CB0005B1CAB42F7DB042070BD012624255D430D
:109CC00066552C196170A2610360002070BD49497E
:109CD0004868C005C00D00281CD0103840B20028CC
:109CE0000CDA0207120F083A920892005118C9695B
:109CF0008007C00EC1400806800F09E081083E4A77
:109D00008900891809688007C00EC1400806800FC5
:109D1000C0B200E00420012803D0032803D00220B1
:109D200070470020704701207047F8B504460D4683
:109D300016462B488168002906D00078844201D25B
:109D4000052D03D207205FE608205DE62046242289
:109D500050430A5C012A01D0082055E6401840789B
:109D6000012809D00027FFF7B2FF3B462A462146CB
:109D70000096FFF7C8FE47E62F46F4E710B5044605
:109D800017498868002804D009788C4203D307203B
:109D900010BD082010BD24216143405C012801D082
:109DA000082010BDFFF793FF2146FFF7D0FE10BD3E
:109DB00010B50B488068002804D0FFF788FFFFF734
:109DC000DFFE10BD082010BD064949680160002073
:109DD0007047401A0002000A10600020704700001F
:109DE000F8200020001501404011014080E200E011
:109DF00000E100E000ED00E000E400E0F0B500224A
:109E0000012703252D043B469340194213D0C66811
:109E10001E4204D1012464041E43C66002E02C46A5
:109E20009E43C660944B9600F3181E68AE431E60B6
:109E30001E6826431E60521C202AE4D3F0BDF8B5EC
:109E40008E4805698E490020C863002632E014213F
:109E5000426871438C1801218068B140014227D0CB
:109E6000E068C74320686F40074039462046FFF747
:109E7000C5FF82480069684000280CD00543E068AF
:109E80002168C04368400840009020460099FFF7D1
:109E9000B5FF009807433846A168A84301402A4609
:109EA00060683A40104002460A4301D02269904758
:109EB000761CF6B2734841788E42C8D3F8BDF0B52F
:109EC0000021142250436F4A01276B4E032355682B
:109ED0001B042C583A468A40144206D08A00921934
:109EE00014689C43146014681460491C2029F0D342
:109EF000F0BD10B5002923D08A0723D00022002A04
:109F000022D00A465F494A60087000234B708B607C
:109F100014214143104600F01CFB00205A49C04365
:109F200088605A494020086059490A68FF231B0489
:109F30009A4303041A430A6056490860002010BD82
:109F4000072010BD0122DAE7072010BDF8B58446CE
:109F50004C4F7C68002C07D0002B07D078783D78D8
:109F6000A84205D30420F8BD0820F8BD0720F8BD9D
:109F70000E4616431425454366512C196160A260B4
:109F8000236161460870411C7970FFF798FF00203B
:109F9000F8BDF0B53B4C6568002D04D0617888426F
:109FA00003D30720F0BD0820F0BD354A0021D1635E
:109FB000324A12699446A368002B03D10122324E23
:109FC000D2077260012686401E43A66014235843C0
:109FD0004419E16000210326360401228A402B58EF
:109FE000134212D06346134201D0334604E00123EA
:109FF0005B04E7681743E7601F4A8F00BA181768C9
:10A00000B743176017681F431760491C2029E4D322
:10A010000020F0BD70B504461A4D6868002804D0D1
:10A020006878844203D3072070BD082070BD2046A5
:10A03000FFF745FF0121A868A1408843A8600028D8
:10A0400003D101201049C0078860002070BD0D4B6E
:10A050005A68002A04D05B78984203D307207047DF
:10A0600008207047142358438018044A1269006876
:10A0700002400A60002070470007005000050050B1
:10A08000406100401C2100200063004080E200E0AD
:10A0900004E400E000E100E010B50446002A02D02C
:10A0A0001088002210E00A48FBE7030A000203437D
:10A0B000A05C584003061B0F43401803584083B26E
:10A0C0001806C00C5840521C8A42EED310BD000046
:10A0D000FFFF000010B508461146C046C04610BD3F
:10A0E000F8B5404E3078002837D03069002807D0C6
:10A0F0000024F068002805D00025002C04D013E0CF
:10A100000124F6E70125F8E7684651DF052806D067
:10A11000002806D000221146FCF784F804E0012450
:10A1200002E0316900988847002D12D170880090B4
:10A130006946B06861DF052806D0002806D00022F5
:10A140001146FCF76FF804E0012502E0F168B06801
:10A150008847002CD1D0002DCFD0F8BD10B50029F4
:10A1600011D08C0711D00024002C10D01D4CA16000
:10A17000628063601C4910DF002803D10120207039
:10A18000162026DF10BD072010BD0124ECE70720B4
:10A1900010BD11DF002801D0012100E00021114A8B
:10A1A00011707047002803D00E49C8600020704726
:10A1B0000E207047002803D00A490861002070472C
:10A1C0000E20704710B507484068002807D0804728
:10A1D000002803D000221146FCF724F810BDFFF739
:10A1E0007FFF10BD28210020D5A0010070B50646D4
:10A1F00000F062FA056830460B30C408E400B4424F
:10A2000001D8002070BD68682A46002818D001686F
:10A21000A14211D30B46214608318B4208D3436833
:10A2200001194B6003681B1B0B605160046001E067
:10A2300041685160001D70BD024640680028E6D1AB
:10A240002146284600F040FA0028DCD170BDFEB55A
:10A25000054610460C46184373D0AE468C46002087
:10A26000AD1A01469C4167D36646002701243D464E
:10A27000B61A9D4102D313463A46212465467646D6
:10A280002F04360C3E432D0CB61A9D4104D3150CF9
:10A290001B042B4312041034654676462F06360AFB
:10A2A0003E432D0AB61A9D4104D3150E1B022B43C3
:10A2B00012020834654676462F0736093E432D09BB
:10A2C000B61A9D4104D3150F1B012B431201241D07
:10A2D00065467646AF07B6083E43AD08B61A9D41BF
:10A2E00004D3950F9B002B439200A41C6546764631
:10A2F000EF0776083E436D08B61A9D411AD39218AF
:10A300005B41641C16E00018764665464941B71A61
:10A310009D410191009009D36046B11A98418E4643
:10A320008446009801990025401C6941DD075208C8
:10A330002A435B08641EE6D57246634603B0F0BD4F
:10A34000FFE700200146C046C0462A462346F5E7FF
:10A350000FB41CB5074B06AA7B44694600900598CC
:10A3600000F07FFA0020694600F08EFA1CBC08BCA1
:10A3700004B018472D050000F8B50E46044600202D
:10A3800020622046E1688847002829D0252802D08D
:10A390006268A16820E0E168204600278847050040
:10A3A0001ED028464138192802D80127FF0220353F
:10A3B0003246204627602946FBF7B2FE002808D027
:10A3C000012804D0F61DF608F6000836D9E7361D38
:10A3D000D7E762682846A1689047206A401CCFE70B
:10A3E000206AF8BDF7B5002575291068009914A6F4
:10A3F00011D0C046C046002802DA404211A608E04B
:10A40000009909688A0701D50FA602E0490704D51B
:10A410000EA6012501E0C046C046009F0024243757
:10A4200004E000F036FA30313955641C0028F8D1C8
:10A430002B4632462146009800F0B5F9FEBD0000DB
:10A44000000000002D0000002B0000002000000094
:10A4500030B5441C03E00178401C00290DD0810771
:10A46000F9D10B4BDD0104C8D11A91432940FAD030
:10A47000001B0A0603D0C01E30BD001B30BD0A04FD
:10A4800001D0801E30BD0902FCD0401E30BD00004E
:10A4900001010101F8B5042A2CD3830712D00B78EF
:10A4A000491C0370401C521E83070BD00B78491CBB
:10A4B0000370401C521E830704D00B78491C0370A4
:10A4C000401C521E8B079B0F05D0C91ADF002023AA
:10A4D000DE1B08C90AE0FBF775FEF8BD1D4608C97A
:10A4E000FD401C46B4402C4310C0121F042AF5D274
:10A4F000F308C91A521EF0D40B78491C0370401C93
:10A50000521EEAD40B78491C0370401C012AE4D483
:10A5100009780170F8BD01E004C0091F0429FBD2CD
:10A520008B0701D50280801CC90700D002707047DC
:10A5300000290BD0C30702D00270401C491E02291B
:10A5400004D3830702D50280801C891EE3E7002222
:10A55000EEE70022DFE7002203098B422CD3030A37
:10A560008B4211D300239C464EE003460B433CD460
:10A57000002243088B4231D303098B421CD3030AC8
:10A580008B4201D394463FE0C3098B4201D3CB01F8
:10A59000C01A524183098B4201D38B01C01A524128
:10A5A00043098B4201D34B01C01A524103098B422C
:10A5B00001D30B01C01A5241C3088B4201D3CB0017
:10A5C000C01A524183088B4201D38B00C01A5241FA
:10A5D00043088B4201D34B00C01A5241411A00D2AA
:10A5E00001465241104670475DE0CA0F00D0494213
:10A5F000031000D34042534000229C4603098B4283
:10A600002DD3030A8B4212D3FC22890112BA030A0A
:10A610008B420CD3890192118B4208D3890192118C
:10A620008B4204D389013AD0921100E08909C30911
:10A630008B4201D3CB01C01A524183098B4201D313
:10A640008B01C01A524143098B4201D34B01C01AFE
:10A65000524103098B4201D30B01C01A5241C30876
:10A660008B4201D3CB00C01A524183088B4201D3E5
:10A670008B00C01A5241D9D243088B4201D34B0000
:10A68000C01A5241411A00D20146634652415B1042
:10A69000104601D34042002B00D549427047634623
:10A6A0005B1000D3404201B50020C046C04602BD49
:10A6B000704770477047000000487047D02700205F
:10A6C000704770477047704738B504460A46002007
:10A6D0006946C046C046002805D00246204600997B
:10A6E00000F0F0F8012038BD10B5012000F004F9A9
:10A6F00010BDF8B5C046C046054600200C461020E7
:10A70000C0460646A819A0420DD932466946002027
:10A71000C046C046070001D100F0EEF80098A04204
:10A7200000D00546C419FFF7C7FFF61D07460560B0
:10A73000F008C0004619284600F008F8B44204D0DA
:10A7400031463868A21B00F0BDF8F8BD0021016059
:10A750004160806070471020704770B50446051F47
:10A76000FFF7AAFF0068002C1AD0446801E02046D9
:10A770006468002C01D0AC42F9D301680A18AA42DF
:10A7800004D12A6805468918016000E04560286800
:10A790004119A14205D161686960216840182860AB
:10A7A00070BD6C6070BDFFB504460D4681B02430AD
:10A7B00000902168880604D51022E0699143216049
:10A7C00000E00120A84201DD471B00E000270498BB
:10A7D000A1697A191018081AA0612078C00602D45D
:10A7E0002046C046C046002608E003986268A1687B
:10A7F000805D9047206A401C761C20620498864247
:10A80000F3DB2078C0060AD52046C046C04606E0E5
:10A810006268A16830209047206A401C2062384658
:10A820007F1E0028F4DC07E000986268A168405DA4
:10A830009047206A401C206228466D1E0028F3DCE9
:10A840002046C046C0462078000602D5022005B04A
:10A85000F0BD0120FBE7000001694A1C0261087895
:10A86000704700B58FB00291002105910549019311
:10A8700079440391114604906846FFF77DFD0FB0BF
:10A8800000BD0000E5FFFFFF0A681070521C0A605F
:10A89000704701468008081A02091018020A1018A9
:10A8A000020C1018C008820012185200891A01E028
:10A8B000401C0A390A29FBD2704700000048704743
:10A8C000C827002010B50346406801E003464068F1
:10A8D000002801D08842F9D31868C3188B4206D0EB
:10A8E000CB1CD808C000001D411A521A0146081D91
:10A8F0000A60FFF732FF10BD10B500F02FF800F02E
:10A9000027F810BD70477546FFF7D8FFAE46050023
:10A9100069465346C008C000854618B020B5FDF70B
:10A92000E5FA60BC00274908B6460026C0C5C0C588
:10A93000C0C5C0C5C0C5C0C5C0C5C0C5403D490033
:10A940008D4670470446C046C0462046FBF701FCD2
:10A9500010B5002801D000F029F810BD10B501286D
:10A9600005D0002103A000F027F8012010BD09A1A7
:10A97000F8E7000053494752544D454D3A204F7572
:10A9800074206F662068656170206D656D6F7279E7
:10A99000000000003A2048656170206D656D6F729F
:10A9A0007920636F727275707465640001491820B4
:10A9B000ABBEFEE72600020070B505460C460A2035
:10A9C00000E06D1C00F012F8002D06D02878002859
:10A9D000F7D102E0641C00F009F8002C02D02078C6
:10A9E0000028F7D10A2000F001F870BD08B56946CB
:10A9F00008700320ABBE08BD70B58C180578401CEC
:10AA00006B075B0F01D10378401C2A1106D1027835
:10AA1000401C03E00678401C0E70491C5B1EF9D1F7
:10AA20002B0705D40023521E0DD40B70491CFAE7E6
:10AA30000378401CCB1A921C03E01D780D70491C52
:10AA40005B1C521EF9D5A142D8D3002070BD30B492
:10AA50007446641E2578641CAB4200D21D46635DBB
:10AA60005B00E31830BC1847110000000200000032
:10AA70001A000000500000001ECD00008CB9A88B09
:10AA800082D851FDA1771E2A23D1BCEA5F78231515
:10AA9000DEEF121200000000B8AA01000020002022
:10AAA0003C010000F8A90100F0AA01003C210020AF
:10AAB0001C17000004610100121E04130C0710A3F0
:10AAC000200313F4211420F4228220A3FFFFB201FB
:10AAD000ABA0860E0112391E19059B10272C1907F1
:10AAE000290C29140112AAFF6B0116037924F40022
:020000041000EA
:0410140000C0030015
:04000005000160C1D5
:00000001FF
